:020000040000FA
:06000000ABEF01F012005D
:020006000000F8
:08000800D9CFE6FFE1CFD9FFDB
:10001000020EE126DE6ADD6ADECF02F0DDCF03F0FC
:10002000D890035004E6F40E025C010E035805E27A
:10003000DF2A010E01E3DB2AEFD7020EE15C02E2C8
:10004000E16AE552E16EE552E7CFD9FF1200D9CF60
:10005000E6FFE1CFD9FF020EE126DE6ADD6ADECFE0
:1000600002F0DDCF03F0D890035004E6880E025C66
:10007000130E035805E2DF2A010E01E3DB2AEFD756
:10008000020EE15C02E2E16AE552E16EE552E7CF81
:10009000D9FF1200D9CFE6FFE1CFD9FF8C808C8247
:1000A000FE0EDB508B6E8C92AFDFE552E7CFD9FFAF
:1000B0001200D9CFE6FFE1CFD9FF8C908C82FE0EE3
:1000C000DB508B6E8C92A0DFE552E7CFD9FF120098
:1000D000BEDF380EE66EEDDFE5520E0EE66EE9DFAE
:1000E000E552010EE66EE5DFE5521200400EE66EC7
:1000F000E0DFE552040EE66ECDDFE5521F0EE66E40
:10010000C9DFE552110EE66EC5DFE552110EE66E4F
:10011000C1DFE552110EE66EBDDFE552110EE66E4F
:10012000B9DFE5521F0EE66EB5DFE552E66AB2DFD3
:10013000E552040EE66EAEDFE5521F0EE66EAADF54
:10014000E552110EE66EA6DFE552110EE66EA2DF55
:10015000E552110EE66E9EDFE5521F0EE66E9ADF47
:10016000E5521F0EE66E96DFE552E66A93DFE55232
:10017000040EE66E8FDFE5521F0EE66E8BDFE55252
:10018000110EE66E87DFE552110EE66E83DFE55253
:100190001F0EE66E7FDFE5521F0EE66E7BDFE55237
:1001A0001F0EE66E77DFE552E66A74DFE552040E55
:1001B000E66E70DFE5521F0EE66E6CDFE552110E43
:1001C000E66E68DFE5521F0EE66E64DFE5521F0E35
:1001D000E66E60DFE5521F0EE66E5CDFE5521F0E35
:1001E000E66E58DFE552E66A55DFE552040EE66E2C
:1001F00051DFE5521F0EE66E4DDFE5521F0EE66E33
:1002000049DFE5521F0EE66E45DFE5521F0EE66E32
:1002100041DFE5521F0EE66E3DDFE5521F0EE66E32
:1002200039DFE552E66A36DFE5521200946A956AD4
:100230004FDF5CDF800EE66E3CDFE552E66A2ADFC8
:10024000E552800EE66E35DFE55201DF010EE66E07
:1002500021DFE552800EE66E2CDFE552F8DE020E5D
:10026000E66E18DFE552800EE66E23DFE552EFDE24
:10027000030EE66E0FDFE552800EE66E1ADFE552E2
:10028000E6DE040EE66E06DFE552800EE66E11DF56
:08029000E552DDDED3D71200B8
:08029800060EF66E000EF76E73
:1002A000000EF86E00010900F550856F0900F55049
:1002B000866F03E1856701D03DD00900F550806F5E
:1002C0000900F550816F0900F550826F090009009F
:1002D000F550E96E0900F550EA6E090009000900C1
:1002E000F550836F0900F550846F09000900F6CFBF
:1002F00087F0F7CF88F0F8CF89F080C0F6FF81C093
:10030000F7FF82C0F8FF0001835302E1845307E046
:100310000900F550EE6E8307F8E28407F9D787C02D
:10032000F6FF88C0F7FF89C0F8FF00018507000EBF
:06033000865BBFD712003E
:0A033600000EF36E00EE00F0060E5C
:1003400001D81200EA6002D0EE6AFCD7F350E960EF
:060350001200EE6AFCD76A
:0A03560015EE00F025EE00F0F86A45
:10036000019C4CEC01F0B9EC01F016EC01F0FBD76C
:02037000120079
:02037200120077
:00000001FF
