:020000040000FA
:0600000097EF01F0120071
:020006000000F8
:08000800D9CFE6FFE1CFD9FFDB
:10001000020EE126DE6ADD6ADECF02F0DDCF03F0FC
:10002000D890035004E6F40E025C010E035805E27A
:10003000DF2A010E01E3DB2AEFD7020EE15C02E2C8
:10004000E16AE552E16EE552E7CFD9FF1200D9CF60
:10005000E6FFE1CFD9FF020EE126DE6ADD6ADECFE0
:1000600002F0DDCF03F0D890035004E6880E025C66
:10007000130E035805E2DF2A010E01E3DB2AEFD756
:10008000020EE15C02E2E16AE552E16EE552E7CF81
:10009000D9FF1200D9CFE6FFE1CFD9FF020EE1264A
:1000A000FE0EDB380F0BDF6EFE0EDB50E76E010E2F
:1000B000E7CFDBFFFD0EDB040DE18C808C82DF508F
:1000C0008B6E8C92A1DF8C82010EDB508B6E8C923A
:1000D0009BDF21D0FD0EDB5002080DE18C808C846B
:1000E000DF508B6E8C9490DF8C84010EDB508B6E16
:1000F0008C948ADF10D08C808C848C82DF508B6E45
:100100008C948C9281DF8C848C82010EDB508B6E00
:100110008C948C9279DF020EE15C02E2E16AE55296
:10012000E16EE552E7CFD9FF1200D9CFE6FFE1CF6C
:10013000D9FF020EE126FE0EDB380F0BDF6EFE0E3E
:10014000DB50E76E010EE7CFDBFF8C908C848C8256
:10015000DF508B6E8C948C9257DF8C848C82010ED6
:10016000DB508B6E8C948C924FDF020EE15C02E2CE
:10017000E16AE552E16EE552E7CFD9FF120067DF91
:10018000020EE66ED2DFE552020EE66ECEDFE552DB
:10019000080EE66ECADFE552E66AC7DFE5520E0ECC
:1001A000E66EC3DFE552E66AC0DFE552010EE66E99
:1001B000BCDFE5521200946A956AE1DF800EE66EBC
:1001C000B4DFE552010EE66E450EE66E63DFE552E2
:1001D000E552010EE66E730EE66E5CDFE552E55207
:1001E000010EE66E630EE66E55DFE552E552010E36
:1001F000E66E6F0EE66E4EDFE552E552010EE66EDC
:100200006C0EE66E47DFE552E552010EE66E610EBA
:10021000E66E40DFE552E552020EE66E530EE66EE4
:1002200039DFE552E552020EE66E630EE66E32DF0E
:10023000E552E552020EE66E680EE66E2BDFE552E1
:10024000E552020EE66E6F0EE66E24DFE552E552D1
:10025000020EE66E6F0EE66E1DDFE552E552020EEF
:10026000E66E6C0EE66E16DFE552E552A7D7120079
:10027000060EF66E000EF76E000EF86E0001090015
:10028000F550856F0900F550866F03E1856701D051
:100290003DD00900F550806F0900F550816F0900CD
:1002A000F550826F09000900F550E96E0900F5501C
:1002B000EA6E090009000900F550836F0900F55046
:1002C000846F09000900F6CF87F0F7CF88F0F8CFE8
:1002D00089F080C0F6FF81C0F7FF82C0F8FF0001FF
:1002E000835302E1845307E00900F550EE6E830763
:1002F000F8E28407F9D787C0F6FF88C0F7FF89C006
:0E030000F8FF00018507000E865BBFD71200D4
:02030E00000EDF
:10031000F36E00EE00F0060E01D81200EA6002D083
:0E032000EE6AFCD7F350E9601200EE6AFCD7DB
:02032E0015EECA
:1003300000F025EE00F0F86A019C38EC01F0A5EC25
:0A03400001F0DBEC00F0FBD7120027
:02034A0012009F
:00000001FF
