:020000040000FA
:060000001EEF02F01200E9
:0A00060001005A0400008A00000007
:0400100008000000E4
:0C001400D9CFE6FFE1CFD9FF020EE126B4
:10002000DE6ADD6ADECF14F0DDCF15F0D890155012
:1000300004E6180E145C790E155805E2DF2A010E4D
:1000400001E3DB2AEFD7020EE15C02E2E16AE5524E
:10005000E16EE552E7CFD9FF12008398838A838C43
:1000600083B006D083A0FED7010EF36EF46A61D090
:1000700083B206D083A2FED7040EF36EF46A59D081
:1000800083B406D083A4FED7070EF36EF46A51D072
:1000900083B606D083A6FED70A0EF36EF46A49D063
:1000A0008388839A838C83B006D083A0FED7020E08
:1000B000F36EF46A3ED083B206D083A2FED7050E5B
:1000C000F36EF46A36D083B406D083A4FED7080E4C
:1000D000F36EF46A2ED083B605D083A6FED7F36AFA
:1000E000F46A27D08388838A839C83B006D083A058
:1000F000FED7030EF36EF46A1CD083B206D083A23F
:10010000FED7060EF36EF46A14D083B406D083A42F
:10011000FED7090EF36EF46A0CD083B606D083A620
:10012000FED70B0EF36EF46A04D01E0EF36EF46A63
:1001300000D0120000011E0E921901E193514FE010
:100140000A0E921901E193514AE00B0E921901E156
:10015000935145E0FE0E00018A1902E1FF0E8B1952
:1001600005E192C08AF093C08BF039D0FE0E8C1955
:1001700002E1FF0E8D1909E18AC08CF08BC08DF071
:1001800092C08AF093C08BF02AD0FE0E8E1902E145
:10019000FF0E8F190DE18CC08EF08DC08FF08AC0DC
:1001A0008CF08BC08DF092C08AF093C08BF017D08A
:1001B000FE0E901902E1FF0E911911E18EC090F030
:1001C0008FC091F08CC08EF08DC08FF08AC08CF003
:1001D0008BC08DF092C08AF093C08BF001D81200D2
:1001E000D9CFE6FFE1CFD9FF100EE126DE6ADD6A46
:1001F000020EDB6A030EDB6A040EDB6A050EDB6AA5
:10020000FE0E0001901902E1FF0E911918E00A0E8E
:1002100090C0DBFF0B0E91C0DBFFE80E086E030EF3
:10022000096E0A0EDBCF0DF00B0EDBCF0EF0F0ECFB
:1002300001F0040E06C0DBFF050E07C0DBFFFE0E5B
:1002400000018E1902E1FF0E8F1917E00C0E8EC00F
:10025000DBFF0D0E8FC0DBFF640E086E096A0C0E0B
:10026000DBCF0DF00D0EDBCF0EF0F0EC01F0020E47
:1002700006C0DBFF030E07C0DBFFFE0E00018C197A
:1002800002E1FF0E8D1915E00E0E8CC0DBFF0F0E84
:100290008DC0DBFF0A0E086E096A0E0EDBCF0DF073
:1002A0000F0EDBCF0EF0F0EC01F006C0DEFF07C052
:1002B000DDFF020EDBCF18F0030EDBCF19F0040ECA
:1002C000DB501824166E050EDB501920176EDE5019
:1002D0001624146EDD501720156E145000018A2567
:1002E0000001946F155000018B210001956F100ED5
:1002F000E15C02E2E16AE552E16EE552E7CFD9FF47
:10030000120000011E0E921901E193510BE0D20E72
:10031000941902E1040E951903E18280FFD701D000
:10032000829001D082901200946A0F0E956E72DE58
:1003300094DEF3CF92F0F4CF93F0FCDEE2DFF7D758
:020340001200A9
:0E034200060EF66E000EF76E000EF86E00014D
:100350000900F550856F0900F550866F03E1856748
:1003600001D03DD00900F550806F0900F550816F34
:100370000900F550826F09000900F550E96E090087
:10038000F550EA6E090009000900F550836F090075
:10039000F550846F09000900F6CF87F0F7CF88F099
:1003A000F8CF89F080C0F6FF81C0F7FF82C0F8FF68
:1003B0000001835302E1845307E00900F550EE6E1B
:1003C0008307F8E28407F9D787C0F6FF88C0F7FFF4
:1003D00089C0F8FF00018507000E865BBFD71200B9
:1003E00008C012F008500D02F4CF07F0F3CF06F06A
:1003F00009500E02F4CF09F0F3CF08F00D02F350CC
:100400000726F4500822E86A092212500E02F3501F
:0C0410000726F4500822E86A0922000CBC
:04041C00000EF36E6D
:1004200000EE00F0060E01D81200EA6002D0EE6A7B
:0C043000FCD7F350E9601200EE6AFCD724
:04043C0015EE00F0C9
:1004400025EE00F0F86A019CA1EC01F02CEC02F022
:0804500094EC01F0FBD712004F
:02045800120090
:06045A00FEFFFEFFFEFFA5
:02046000FEFF9D
:00000001FF
