:020000040000FA
:060000002CEF02F01200DB
:0A00060001007604000080000000F5
:040010001A000000D2
:0C001400D9CFE6FFE1CFD9FF040EE126B2
:10002000DE6ADD6ADECF00F0DDCF01F0FD0EDBCF52
:1000300002F0FE0EDBCF03F00250005C03500158CB
:100040001DE2020EDB6A030EDB6A020EDBCF00F05C
:10005000030EDBCF01F0D890015004E6F80E005CEF
:10006000110E015806E2020EDB2A030E01E3DB2A21
:10007000ECD7DF2A010E01E3DB2AD4D7040EE15CC2
:1000800002E2E16AE552E16EE552E7CFD9FF1200E4
:10009000D9CFE6FFE1CFD9FF050EE126DE6ADD6AA2
:1000A000DECF00F0DDCF01F0FD0EDBCF02F0FE0E63
:1000B000DBCF03F00250005C0350015821E2020E36
:1000C000DB6A030EDB6A040EDB6AD950020FE96EAD
:1000D000DACFEAFF400EEE5C9C0EEE58000EEF58B1
:1000E0000AE2D950020FE96EDACFEAFFEE2A000EDB
:1000F000EE22EE22EAD7DF2A010E01E3DB2AD0D777
:10010000050EE15C02E2E16AE552E16EE552E7CFFD
:10011000D9FF12000001802B0A0E805D1FE3806B67
:10012000812B060E815D1AE3816B822B0A0E825DA4
:1001300015E3826B832B060E835D10E3836B842BA8
:10014000020E855D06E1040E845D03E3846B856B1E
:1001500005D00A0E845D02E3846B852B120000013A
:10016000822B0A0E825D15E3826B832B060E835D64
:1001700010E3836B842B020E855D06E1040E845D23
:1001800003E3846B856B05D00A0E845D02E3846B08
:10019000852B12000001842B020E855D06E1040E02
:1001A000845D03E3846B856B05D00A0E845D02E3F6
:1001B000846B852B120000018151EA6A900FE96E71
:1001C000000EEA22EF38F00B006E8051EA6A900FC1
:1001D000E96E000EEA22EF500010826E8351EA6A47
:1001E000900FE96E000EEA22EF38F00B006E82519C
:1001F000EA6A900FE96E000EEA22EF500010836E5B
:100200008551EA6A900FE96E000EEA22EF38F00B92
:10021000006E8451EA6A900FE96E000EEA22EF50F8
:100220000010816E1200D9CFE6FFE1CFD9FFE65270
:1002300080A46DD0010EE66EE66A2ADFE552E55233
:1002400080A465D0010EE66EE66A22DFE552E55233
:1002500080A45DD0010EDF6E80C086F081C087F083
:1002600082C088F083C089F084C08AF085C08BF09A
:100270000001806B816B826B836B846B856B9BDF72
:10028000DF5045E080A209D06ADF010EE66EE66A23
:10029000FFDEE552E5528FDF39D080A009D07ADF4A
:1002A000010EE66EE66AF4DEE552E55284DF2ED0FA
:1002B00080A425D0010EE66EE66AEADEE552E5523C
:1002C00080A41DD0010EE66EE66AE2DEE552E5523C
:1002D00080A415D082C08CF083C08DF084C08EF0D5
:1002E00085C08FF086C080F087C081F088C082F022
:1002F00089C083F08AC084F08BC085F0DF6A5BDF41
:10030000010EE66EE66AC4DEE552E552B9D7E55263
:10031000E552E7CFD9FF120000018C51825D11E157
:100320008D51835D0EE18E51845D0BE18F51855DB2
:1003300008E18086010EE66EE66AAADEE552E55225
:100340008096120092829280928492960F0EC16ED5
:10035000946A956A936A80A209D001DF010EE66E65
:10036000E66A96DEE552E55226DF15D080A009D078
:1003700011DF010EE66EE66A8BDEE552E5521BDF09
:100380000AD051DFC9DFC6DE010EE66EE66A80DE06
:0A039000E552E55210DFDFD712003E
:06039A00060EF66E000ED7
:1003A000F76E000EF86E00010900F5509F6F09000E
:1003B000F550A06F03E19F6701D03DD00900F550D3
:1003C0009A6F0900F5509B6F0900F5509C6F09006A
:1003D0000900F550E96E0900F550EA6E09000900C0
:1003E0000900F5509D6F0900F5509E6F0900090046
:1003F000F6CFA1F0F7CFA2F0F8CFA3F09AC0F6FFA6
:100400009BC0F7FF9CC0F8FF00019D5302E19E5383
:1004100007E00900F550EE6E9D07F8E29E07F9D758
:10042000A1C0F6FFA2C0F7FFA3C0F8FF00019F071D
:08043000000EA05BBFD7120013
:08043800000EF36E00EE00F06F
:10044000060E01D81200EA6002D0EE6AFCD7F35023
:08045000E9601200EE6AFCD71E
:0804580015EE00F025EE00F0A6
:10046000F86A059CCDEC01F03AEC02F0A2EC01F048
:04047000FBD71200A4
:02047400120074
:0A047600000000000000000000007C
:10048000000000000201000102030405060708093C
:00000001FF
