:020000040000FA
:0600000088EF03F012007E
:0A00060001002E070000800000003A
:0400100019000000D3
:0C001400D9CFE6FFE1CFD9FF020EE126B4
:10002000DE6ADD6ADECF00F0DDCF01F0D89001504E
:1000300004E6C80E005C000E015805E2DF2A010E3E
:1000400001E3DB2AEFD7020EE15C02E2E16AE5524E
:10005000E16EE552E7CFD9FF1200D9CFE6FFE1CF3D
:10006000D9FF020EE12642D8DE6ADD6ADECF00F05B
:10007000DDCF01F01F0E005C000E015806E25CD8D7
:10008000DF2A010E01E3DB2AF1D7020EE15C02E276
:10009000E16AE552E16EE552E7CFD9FF1200D9CF10
:1000A000E6FFE1CFD9FF020EE126DE6ADD6ADECF90
:1000B00000F0DDCF01F0026AD8900250000A06E697
:1000C000C80E005CAF0E0158000E025805E2DF2A90
:1000D000010E01E3DB2AEBD7020EE15C02E2E16AEA
:1000E000E552E16EE552E7CFD9FF12000001852B02
:1000F0000A0E855D20E3856B842B060E845D1BE371
:10010000846B832B0A0E835D16E3836B822B060EB2
:10011000825D11E3826B812B020E805D07E1040E8C
:10012000815D04E3806B80C081F005D00A0E815DA3
:1001300002E3816B802B12008C8E8C8C8C8A8C88D5
:100140008C868C848C828C8000018051EA6A8E0FB0
:10015000E96E000EEA22EF508B6E8C905BDF8C8094
:1001600000018151EA6A8E0FE96E000EEA22EF501B
:100170008B6E8C924FDF8C8200018651EA6A8E0F63
:10018000E96E000EEA22EF508B6E8C9443DF8C8474
:1001900000018251EA6A8E0FE96E000EEA22EF50EA
:1001A0008B6E8C9637DF8C8600018351EA6A8E0F46
:1001B000E96E000EEA22EF508B6E8C982BDF8C8854
:1001C00000018651EA6A8E0FE96E000EEA22EF50B6
:1001D0008B6E8C9A1FDF8C8A00018451EA6A8E0F25
:1001E000E96E000EEA22EF508B6E8C9C13DF8C8C34
:1001F00000018551EA6A8E0FE96E000EEA22EF5087
:100200008B6E8C9E07DF8C8E1200D9CFE6FFE1CF7C
:10021000D9FF020EE126DE6ADD6ADECF00F0DDCF17
:1002200001F0D890015004E6040E005C000E015865
:1002300028E28198818A818C81B006D081A0FED786
:10024000010EF36EF46A8CD081B206D081A2FED783
:10025000040EF36EF46A84D081B406D081A4FED774
:10026000070EF36EF46A7CD081B606D081A6FED765
:100270000A0EF36EF46A74D0DF2A010E01E3DB2A62
:10028000CCD7DE6ADD6ADECF00F0DDCF01F0D8909A
:10029000015004E6040E005C000E015827E281883C
:1002A000819A818C81B006D081A0FED7020EF36EB8
:1002B000F46A56D081B206D081A2FED7050EF36E45
:1002C000F46A4ED081B406D081A4FED7080EF36E36
:1002D000F46A46D081B605D081A6FED7F36AF46AE7
:1002E0003FD0DF2A010E01E3DB2ACDD7DE6ADD6ACB
:1002F000DECF00F0DDCF01F0D890015004E6040E0F
:10030000005C000E015828E28188818A819C81B0BE
:1003100006D081A0FED7030EF36EF46A21D081B21D
:1003200006D081A2FED7060EF36EF46A19D081B40E
:1003300006D081A4FED7090EF36EF46A11D081B6FF
:1003400006D081A6FED70B0EF36EF46A09D0DF2A21
:10035000010E01E3DB2ACCD71E0EF36EF46A00D047
:10036000020EE15C02E2E16AE552E16EE552E7CF9E
:10037000D9FF1200FF0E0001805D0EE0FE0E8D5DC4
:100380000BE1856985C084F085C083F085C082F06B
:1003900085C081F085C080F00B0E0001A35D01E1F6
:1003A00087D00A0EA35D01E183D0FF0E0001855DB9
:1003B0000DE11E0E0001A35D09E000018851845D7E
:1003C00005E0A3C085F085C088F072D00001885197
:1003D000855D0FE11E0E0001A35D0BE0000185515C
:1003E000895D07E088C084F0A3C085F085C089F0EE
:1003F0005FD000018851845D11E11E0E0001A35DF4
:100400000DE0000185518A5D09E088C083F089C054
:1004100084F0A3C085F085C08AF04AD000018851DD
:10042000835D13E11E0E0001A35D0FE00001855105
:100430008B5D0BE088C082F089C083F08AC084F0B5
:10044000A3C085F085C08BF033D000018851825D58
:1004500015E11E0E0001A35D11E0000185518C5DC8
:100460000DE088C081F089C082F08AC083F08BC023
:1004700084F0A3C085F085C08CF01AD000018851AB
:10048000815D16E11E0E0001A35D12E000018551A1
:100490008D5D0EE088C080F089C081F08AC082F056
:1004A0008BC083F08CC084F0A3C085F085C08DF034
:1004B0001200FE0E00018D5D01E193D00A0E855DF4
:1004C00001E378D0060E845D5DE20A0E835D42E2B0
:1004D000060E825D27E2020E805D03E1040E815D5F
:1004E00006E3020E805D06E20A0E815D03E2876B81
:1004F000B4DD17D0856985C084F085C083F085C0E0
:1005000082F085C081F085C080F0FE0E8D6F8DC0B9
:100510008CF08DC08BF08DC08AF08DC089F08DC0BD
:1005200088F017D0856985C084F085C083F085C0C8
:1005300082F085C081F085C080F0FE0E8D6F8DC089
:100540008CF08DC08BF08DC08AF08DC089F08DC08D
:1005500088F017D0856985C084F085C083F085C098
:1005600082F085C081F085C080F0FE0E8D6F8DC059
:100570008CF08DC08BF08DC08AF08DC089F08DC05D
:1005800088F017D0856985C084F085C083F085C068
:1005900082F085C081F085C080F0FE0E8D6F8DC029
:1005A0008CF08DC08BF08DC08AF08DC089F08DC02D
:1005B00088F017D0856985C084F085C083F085C038
:1005C00082F085C081F085C080F0FE0E8D6F8DC0F9
:1005D0008CF08DC08BF08DC08AF08DC089F08DC0FD
:1005E00088F012000B0E0001A35D25E158DD0B0E13
:1005F0000001A35D1EE153DD0B0E0001A35D18E1B8
:100600000001856985C084F085C083F085C082F0D3
:1006100085C081F085C080F0010E876F0001875191
:1006200007E0A8DE89DDF1DDF3CFA3F042DFF6D7E6
:1006300001D013DD01D011DD1200946A956A0F0E0E
:10064000936EC16E0ADDE1DDF3CFA3F0CBDFFAD705
:02065000120096
:0E065200060EF66E000EF76E000EF86E00013A
:100660000900F5509E6F0900F5509F6F03E19E67EA
:1006700001D03DD00900F550996F0900F5509A6FEF
:100680000900F5509B6F09000900F550E96E09005B
:10069000F550EA6E090009000900F5509C6F090049
:1006A000F5509D6F09000900F6CFA0F0F7CFA1F03B
:1006B000F8CFA2F099C0F6FF9AC0F7FF9BC0F8FFF1
:1006C00000019C5302E19D5307E00900F550EE6ED6
:1006D0009C07F8E29D07F9D7A0C0F6FFA1C0F7FF7D
:1006E000A2C0F8FF00019E07000E9F5BBFD712005B
:1006F000000EF36E00EE00F0060E01D81200EA6064
:1007000002D0EE6AFCD7F350E9601200EE6AFCD723
:1007100015EE00F025EE00F0F86A049C29EC03F0D9
:0C07200096EC03F01DEC03F0FBD7120078
:02072C001200B9
:02072E000000C9
:10073000000000000A01FEFEFEFEFEFE3F065B4FCB
:07074000666D7D077F6F402D
:00000001FF
