:020000040000FA
:06000000F7EF00F0120012
:0A00060001000C0200008000000061
:040010004D0000009F
:0C001400D9CFE6FFE1CFD9FF020EE126B4
:10002000DE6ADD6ADECF02F0DDCF03F0D890035048
:1000300004E6200E025C030E035805E2DF2A010EDF
:1000400001E3DB2AEFD7020EE15C02E2E16AE5524E
:10005000E16EE552E7CFD9FF12000001D76BD86BF4
:100060003C0ED8AF02D0D89003D0D75D000ED8593F
:1000700056E2D96BDA6B080EDAAF02D0D89003D013
:10008000D95D000EDA5947E2DA3504E2D9510708A2
:10009000000EDA550BE3800ED9C0E7FFE75204E00B
:1000A000E8427F0BE706FCE1836E12D0D9C002F074
:1000B000DAC003F0060E025E000E035A800E02C084
:1000C000E7FFE75204E0E8427F0BE706FCE1836EBE
:1000D0000001D751D925E96ED851DA21EA6E070E11
:1000E000E926000EEA22800EE926000EEA22EF50F1
:1000F000826ED751D925E96ED851DA21EA6E800E89
:10010000E926000EEA22EF50816E84DF0001D92B30
:10011000000EDA23B0D7D72B000ED823A1D71200B8
:10012000956A946A936A0F0EC16E97DFFED712002C
:10013000060EF66E000EF76E000EF86E0001090056
:10014000F550D26F0900F550D36F03E1D26701D0AB
:100150003DD00900F550CD6F0900F550CE6F090074
:10016000F550CF6F09000900F550E96E0900F55010
:10017000EA6E090009000900F550D06F0900F5503A
:10018000D16F09000900F6CFD4F0F7CFD5F0F8CF42
:10019000D6F0CDC0F6FFCEC0F7FFCFC0F8FF00010C
:1001A000D05302E1D15307E00900F550EE6ED007BD
:1001B000F8E2D107F9D7D4C0F6FFD5C0F7FFD6C013
:0E01C000F8FF0001D207000ED35BBFD712007C
:0201CE00000E21
:1001D000F36E00EE00F0060E01D81200EA6002D0C5
:0E01E000EE6AFCD7F350E9601200EE6AFCD71D
:0201EE0015EE0C
:1001F00000F025EE00F0F86A019C98EC00F005ECA8
:0A02000001F090EC00F0FBD71200B3
:02020A001200E0
:04020C00FFFFFFFFF2
:10021000FFFFFFFFFFC01FE71FC0FFFF7E6E6E00E6
:1002200000FFFF3F3F3F0000FFFF3F3F3F0000FF59
:10023000FF3C3C003C3CFFFF04243C0000FFFFFC73
:10024000FC00FCFCFFFF00003C0000FFFF00F9E7A2
:090250009F00FFFFFFFFFFFFFF0D
:00000001FF
