:020000040000FA
:0600000046EF01F01200C2
:020006000000F8
:08000800D9CFE6FFE1CFD9FFDB
:10001000020EE126DE6ADD6ADECF02F0DDCF03F0FC
:10002000D890035004E6F40E025C010E035805E27A
:10003000DF2A010E01E3DB2AEFD7020EE15C02E2C8
:10004000E16AE552E16EE552E7CFD9FF1200D9CF60
:10005000E6FFE1CFD9FF020EE126DE6ADD6ADECFE0
:1000600002F0DDCF03F0D890035004E6880E025C66
:10007000130E035805E2DF2A010E01E3DB2AEFD756
:10008000020EE15C02E2E16AE552E16EE552E7CF81
:10009000D9FF1200D9CFE6FFE1CFD9FF020EE1264A
:1000A000FE0EDB380F0BDF6EFE0EDB50E76E010E2F
:1000B000E7CFDBFF8C808C82DF508B6E8C92A4DFCD
:1000C0008C82010EDB508B6E8C929EDF020EE15C07
:1000D00002E2E16AE552E16EE552E7CFD9FF120094
:1000E000D9CFE6FFE1CFD9FF020EE126FE0EDB38C5
:1000F0000F0BDF6EFE0EDB50E76E010EE7CFDBFF6E
:100100008C908C82DF508B6E8C927EDF8C82010E05
:10011000DB508B6E8C9278DF020EE15C02E2E16ACA
:10012000E552E16EE552E7CFD9FF120090DF020EF3
:10013000E66ED6DFE552020EE66ED2DFE552080E1D
:10014000E66ECEDFE552E66ACBDFE5520E0EE66ED6
:10015000C7DFE552E66AC4DFE552010EE66EC0DF96
:10016000E5521200946A956AE1DF800EE66EB8DF10
:10017000E552570EE66E8EDFE552650EE66E8ADFBB
:10018000E5526C0EE66E86DFE5526C0EE66E82DF9F
:10019000E552690EE66E7EDFE5526E0EE66E7ADFA0
:1001A000E552670EE66E76DFE552740EE66E72DF9C
:1001B000E5526F0EE66E6EDFE5526E0EE66E6ADF9A
:0E01C000E552200EE66E66DFE552CFD7120044
:0201CE00060E1B
:1001D000F66E000EF76E000EF86E00010900F55085
:1001E000856F0900F550866F03E1856701D03DD02A
:1001F0000900F550806F0900F550816F0900F55036
:10020000826F09000900F550E96E0900F550EA6EA9
:10021000090009000900F550836F0900F550846F4B
:1002200009000900F6CF87F0F7CF88F0F8CF89F002
:1002300080C0F6FF81C0F7FF82C0F8FF0001835342
:1002400002E1845307E00900F550EE6E8307F8E2FF
:100250008407F9D787C0F6FF88C0F7FF89C0F8FF89
:0C02600000018507000E865BBFD712006E
:04026C00000EF36E1F
:1002700000EE00F0060E01D81200EA6002D0EE6A2D
:0C028000FCD7F350E9601200EE6AFCD7D6
:04028C0015EE00F07B
:1002900025EE00F0F86A019CE7EC00F054EC01F068
:0802A000B2EC00F0FBD71200E4
:0202A800120042
:00000001FF
