:020000040000FA
:06000000C1EF0CF012003C
:0A0006000100A019000080000000B6
:0400100024000000C8
:0C001400D9CFE6FFE1CFD9FF020EE126B4
:10002000DE6ADD6ADECF00F0DDCF01F0D89001504E
:1000300004E6C80E005C000E015805E2DF2A010E3E
:1000400001E3DB2AEFD7020EE15C02E2E16AE5524E
:10005000E16EE552E7CFD9FF12008C8A8C888C863E
:100060008C848C828C800001A451EA6A960FE96E20
:10007000000EEA22EF508B6E8C90CCDF8C8000015A
:10008000A551EA6A960FE96E000EEA22EF508B6ED8
:100090008C92C0DF8C820001A651EA6A960FE96E4D
:1000A000000EEA22EF508B6E8C94B4DF8C8400013A
:1000B000A751EA6A960FE96E000EEA22EF508B6EA6
:1000C0008C96A8DF8C860001A851EA6A960FE96E2B
:1000D000000EEA22EF508B6E8C989CDF8C8800011A
:1000E000A951EA6A960FE96E000EEA22EF508B6E74
:1000F0008C9A90DF8C8A1200D9CFE6FFE1CFD9FF2E
:10010000020EE126DE6ADD6ADECF00F0DDCF01F00F
:10011000D890015004E6010E005C000E015831E257
:100120008198818A818C818E81B008D081A0FED790
:10013000070E1A6E1B6A1C6A1D6AE5D081B208D0D0
:1001400081A2FED7040E1A6E1B6A1C6A1D6ADBD0E0
:1001500081B408D081A4FED7010E1A6E1B6A1C6AF6
:100160001D6AD1D081B608D081A6FED70A0E1A6EBC
:100170001B6A1C6A1D6AC7D0DF2A010E01E3DB2A55
:10018000C3D7DE6ADD6ADECF00F0DDCF01F0D890A4
:10019000015004E6010E005C000E015830E2818837
:1001A000819A818C818E81B008D081A0FED7080E03
:1001B0001A6E1B6A1C6A1D6AA6D081B208D081A281
:1001C000FED7050E1A6E1B6A1C6A1D6A9CD081B48C
:1001D00008D081A4FED7020E1A6E1B6A1C6A1D6A23
:1001E00092D081B607D081A6FED71A6A1B6A1C6A14
:1001F0001D6A89D0DF2A010E01E3DB2AC4D7DE6A3B
:10020000DD6ADECF00F0DDCF01F0D890015004E6CA
:10021000010E005C000E015831E28188818A819CC8
:10022000818E81B008D081A0FED7090E1A6E1B6A9C
:100230001C6A1D6A68D081B208D081A2FED7060E62
:100240001A6E1B6A1C6A1D6A5ED081B408D081A434
:10025000FED7030E1A6E1B6A1C6A1D6A54D081B643
:1002600008D081A6FED70B0E1A6E1B6A1C6A1D6A87
:100270004AD0DF2A010E01E3DB2AC3D7DE6ADD6A3A
:10028000DECF00F0DDCF01F0D890015004E6010E82
:10029000005C000E015831E28188818A818C819E48
:1002A00081B008D081A0FED70C0E1A6E1B6A1C6AA2
:1002B0001D6A29D081B208D081A2FED70D0E1A6E18
:1002C0001B6A1C6A1D6A1FD081B408D081A4FED7A6
:1002D0000E0E1A6E1B6A1C6A1D6A15D081B608D0F4
:1002E00081A6FED70F0E1A6E1B6A1C6A1D6A0BD000
:1002F000DF2A010E01E3DB2AC3D71E0E1A6E1B6A2A
:100300001C6A1D6A00D0020EE15C02E2E16AE5525D
:10031000E16EE552E7CFD9FF12008E0EE96E000EB6
:10032000EA6E00018A51EE24926F8B51EE20936F9A
:100330008C51EE20946F8D51EE20956F9535000E07
:10034000951909E6D8803F0E9255420E93550F0E2F
:100350009455000E95553DE200010A0EA46F0D0E56
:10036000A56FA66FA76B79DE0001010EAA6FAA51D7
:100370002FE073DEC1DE1AC0ABF01BC0ACF01CC0B6
:10038000ADF01DC0AEF00A0E0001AB1905E1AC5195
:1003900003E1AD5101E1AE511AE1A969A9C0A8F08C
:1003A000A9C0A7F0A9C0A6F0A9C0A5F0A9C0A4F053
:1003B0000001FE0E856F85C084F085C083F085C086
:1003C00082F085C081F085C080F00001AA6BCFD794
:1003D00041D07FDA80C0A4F081C0A5F082C0A6F031
:1003E00083C0A7F084C0A8F085C0A9F00001010E69
:1003F000AA6FAA512FE031DE7FDE1AC0ABF01BC01E
:10040000ACF01CC0ADF01DC0AEF00A0E0001AB197F
:1004100005E1AC5103E1AD5101E1AE511AE1A96929
:10042000A9C0A8F0A9C0A7F0A9C0A6F0A9C0A5F0CE
:10043000A9C0A4F00001FE0E856F85C084F085C0C0
:1004400083F085C082F085C081F085C080F0000116
:10045000AA6BCFD712008E0EE96E000EEA6EEE5038
:1004600000018A5D926FEE508B59936FEE508C595C
:10047000946FEE508D59956F8A0EE96E000EEA6EFC
:10048000030EEB509119E8AE02D0913508D08E5191
:10049000EE5C8F51EE589051EE589151EE584AE271
:1004A000000E926D931F9323941F9423951F952301
:1004B00010DA00010B0EA46F81C0A5F082C0A6F077
:1004C00083C0A7F084C0A8F085C0A9F0010EAA6F70
:1004D000AA512FE0C2DD10DE1AC0ABF01BC0ACF099
:1004E0001CC0ADF01DC0AEF00A0E0001AB1905E155
:1004F000AC5103E1AD5101E1AE511AE1A969A9C0C6
:10050000A8F0A9C0A7F0A9C0A6F0A9C0A5F0A9C0ED
:10051000A4F00001FE0E856F85C084F085C083F0D5
:1005200085C082F085C081F085C080F00001AA6B93
:10053000CFD741D0CED980C0A4F081C0A5F082C071
:10054000A6F083C0A7F084C0A8F085C0A9F0000180
:10055000010EAA6FAA512FE080DDCEDD1AC0ABF0EC
:100560001BC0ACF01CC0ADF01DC0AEF00A0E000107
:10057000AB1905E1AC5103E1AD5101E1AE511AE116
:10058000A969A9C0A8F0A9C0A7F0A9C0A6F0A9C0F0
:10059000A5F0A9C0A4F00001FE0E856F85C084F00F
:1005A00085C083F085C082F085C081F085C080F071
:1005B0000001AA6BCFD712008AC01AF08BC01BF0C3
:1005C0008CC01CF08DC01DF08EC01FF08FC020F0BD
:1005D00090C021F091C022F021EC0CF016C092F0F6
:1005E00017C093F018C094F019C095F0000195352C
:1005F000000E951909E6D8803F0E9255420E93558C
:100600000F0E9455000E95553DE200010A0EA46FA1
:100610000D0EA56FA66FA76B20DD0001010EAA6F5E
:10062000AA512FE01ADD68DD1AC0ABF01BC0ACF098
:100630001CC0ADF01DC0AEF00A0E0001AB1905E103
:10064000AC5103E1AD5101E1AE511AE1A969A9C074
:10065000A8F0A9C0A7F0A9C0A6F0A9C0A5F0A9C09C
:10066000A4F00001FE0E856F85C084F085C083F084
:1006700085C082F085C081F085C080F00001AA6B42
:10068000CFD741D026D980C0A4F081C0A5F082C0C8
:10069000A6F083C0A7F084C0A8F085C0A9F000012F
:1006A000010EAA6FAA512FE0D8DC26DD1AC0ABF0EC
:1006B0001BC0ACF01CC0ADF01DC0AEF00A0E0001B6
:1006C000AB1905E1AC5103E1AD5101E1AE511AE1C5
:1006D000A969A9C0A8F0A9C0A7F0A9C0A6F0A9C09F
:1006E000A5F0A9C0A4F00001FE0E856F85C084F0BE
:1006F00085C083F085C082F085C081F085C080F020
:100700000001AA6BCFD712008AC01AF08BC01BF071
:100710008CC01CF08DC01DF08EC01FF08FC020F06B
:1007200090C021F091C022F059EC0CF01AC092F068
:100730001BC093F01CC094F01DC095F000019535CE
:10074000000E951909E6D8800F0E9255270E935585
:10075000000E9455000E95553DE200010A0EA46F5F
:100760000D0EA56FA66FA76B78DC0001010EAA6FB6
:10077000AA512FE072DCC0DC1AC0ABF01BC0ACF099
:100780001CC0ADF01DC0AEF00A0E0001AB1905E1B2
:10079000AC5103E1AD5101E1AE511AE1A969A9C023
:1007A000A8F0A9C0A7F0A9C0A6F0A9C0A5F0A9C04B
:1007B000A4F00001FE0E856F85C084F085C083F033
:1007C00085C082F085C081F085C080F00001AA6BF1
:1007D000CFD77ED07ED882C0A4F083C0A5F084C0DD
:1007E000A6F085C0A7F000010C0EA86F8AC000F02B
:1007F0008BC001F08CC002F08DC003F0E80E1F6EBC
:10080000030E206E216A226A00C01AF001C01BF09C
:1008100002C01CF003C01DF021EC0CF016C000F06B
:1008200017C001F018C002F019C003F000C01AF0A0
:1008300001C01BF002C01CF003C01DF08EC01FF0F1
:100840008FC020F090C021F091C022F059EC0CF044
:100850001AC092F01BC093F01CC094F01DC095F01C
:1008600038D883C0A9F00001010EAA6FAA5130E068
:100870002DEC00F041DC1AC0ABF01BC0ACF01CC08A
:10088000ADF01DC0AEF00A0E0001AB1905E1AC5190
:1008900003E1AD5101E1AE511AE1A969A9C0A8F087
:1008A000A9C0A7F0A9C0A6F0A9C0A5F0A9C0A4F04E
:1008B0000001FE0E856F85C084F085C083F085C081
:1008C00082F085C081F085C080F00001AA6BCED790
:1008D000120000019535000E951909E6D880A00E8A
:1008E0009255860E9355010E9455000E955501E3D1
:1008F000D3D092C01AF093C01BF094C01CF095C0E6
:100900001DF0A00E1F6E860E206E010E216E226A53
:1009100059EC0CF01AC080F0A00E1F6E860E206EEF
:10092000010E216E226A92C01AF093C01BF094C08F
:100930001CF095C01DF059EC0CF016C092F017C0D9
:1009400093F018C094F019C095F092C01AF093C0BB
:100950001BF094C01CF095C01DF0100E1F6E270EEA
:10096000206E216A226A59EC0CF01AC081F0100E38
:100970001F6E270E206E216A226A92C01AF093C061
:100980001BF094C01CF095C01DF059EC0CF016C083
:1009900092F017C093F018C094F019C095F092C06F
:1009A0001AF093C01BF094C01CF095C01DF0E80E27
:1009B0001F6E030E206E216A226A59EC0CF01AC0D9
:1009C00082F0E80E1F6E030E206E216A226A92C02A
:1009D0001AF093C01BF094C01CF095C01DF059ECA8
:1009E0000CF016C092F017C093F018C094F019C024
:1009F00095F092C01AF093C01BF094C01CF095C003
:100A00001DF0640E1F6E206A216A226A59EC0CF0F8
:100A10001AC083F0640E1F6E206A216A226A92C097
:100A20001AF093C01BF094C01CF095C01DF059EC57
:100A30000CF016C092F017C093F018C094F019C0D3
:100A400095F092C01AF093C01BF094C01CF095C0B2
:100A50001DF00A0E1F6E206A216A226A59EC0CF002
:100A60001AC084F00A0E1F6E206A216A226A92C0A0
:100A70001AF093C01BF094C01CF095C01DF059EC07
:100A80000CF016C092F017C093F018C094F019C083
:100A900095F092C085F0DBD19535000E951909E6E9
:100AA000D880100E9255270E9355000E9455000EC7
:100AB000955501E3A7D092C01AF093C01BF094C0E3
:100AC0001CF095C01DF0100E1F6E270E206E216ABF
:100AD000226A59EC0CF01AC081F0100E1F6E270E1E
:100AE000206E216A226A92C01AF093C01BF094C053
:100AF0001CF095C01DF059EC0CF016C092F017C018
:100B000093F018C094F019C095F092C01AF093C0F9
:100B10001BF094C01CF095C01DF0E80E1F6E030E74
:100B2000206E216A226A59EC0CF01AC082F0E80E9D
:100B30001F6E030E206E216A226A92C01AF093C0C3
:100B40001BF094C01CF095C01DF059EC0CF016C0C1
:100B500092F017C093F018C094F019C095F092C0AD
:100B60001AF093C01BF094C01CF095C01DF0640EE9
:100B70001F6E206A216A226A59EC0CF01AC083F0B9
:100B8000640E1F6E206A216A226A92C01AF093C016
:100B90001BF094C01CF095C01DF059EC0CF016C071
:100BA00092F017C093F018C094F019C095F092C05D
:100BB0001AF093C01BF094C01CF095C01DF00A0EF3
:100BC0001F6E206A216A226A59EC0CF01AC084F068
:100BD0000A0E1F6E206A216A226A92C01AF093C020
:100BE0001BF094C01CF095C01DF059EC0CF016C021
:100BF00092F017C093F018C094F019C095F092C00D
:100C000085F025D19535000E951909E6D880E80EB6
:100C10009255030E9355000E9455000E955501E321
:100C20007DD092C01AF093C01BF094C01CF095C008
:100C30001DF0E80E1F6E030E206E216A226A59EC29
:100C40000CF01AC082F0E80E1F6E030E206E216AAF
:100C5000226A92C01AF093C01BF094C01CF095C099
:100C60001DF059EC0CF016C092F017C093F018C0AC
:100C700094F019C095F092C01AF093C01BF094C084
:100C80001CF095C01DF0640E1F6E206A216A226A56
:100C900059EC0CF01AC083F0640E1F6E206A216AB2
:100CA000226A92C01AF093C01BF094C01CF095C049
:100CB0001DF059EC0CF016C092F017C093F018C05C
:100CC00094F019C095F092C01AF093C01BF094C034
:100CD0001CF095C01DF00A0E1F6E206A216A226A60
:100CE00059EC0CF01AC084F00A0E1F6E206A216ABB
:100CF000226A92C01AF093C01BF094C01CF095C0F9
:100D00001DF059EC0CF016C092F017C093F018C00B
:100D100094F019C095F092C085F099D09535000EE9
:100D2000951909E6D880640E9255000E9355000E71
:100D30009455000E955553E292C01AF093C01BF0E3
:100D400094C01CF095C01DF0640E1F6E206A216ACD
:100D5000226A59EC0CF01AC083F0640E1F6E206AF0
:100D6000216A226A92C01AF093C01BF094C01CF052
:100D700095C01DF059EC0CF016C092F017C093F01E
:100D800018C094F019C095F092C01AF093C01BF0EF
:100D900094C01CF095C01DF00A0E1F6E206A216AD7
:100DA000226A59EC0CF01AC084F00A0E1F6E206AF9
:100DB000216A226A92C01AF093C01BF094C01CF002
:100DC00095C01DF059EC0CF016C092F017C093F0CE
:100DD00018C094F019C095F092C085F038D09535C0
:100DE000000E951909E6D8800A0E9255000E93550B
:100DF000000E9455000E95552AE292C01AF093C049
:100E00001BF094C01CF095C01DF00A0E1F6E206AE6
:100E1000216A226A59EC0CF01AC084F00A0E1F6E87
:100E2000206A216A226A92C01AF093C01BF094C013
:100E30001CF095C01DF059EC0CF016C092F017C0D4
:100E400093F018C094F019C095F092C085F012008C
:100E5000D9CFE6FFE1CFD9FF280EE1260B0E000126
:100E6000AB1905E1AC5103E1AD5101E1AE5101E037
:100E7000B2D1DE6ADE6ADE6ADD6ADD52DD52040E60
:100E8000DB6A050EDB6A060EDB6A070EDB6A080EFC
:100E9000DB6A090EDB6A0A0EDB6A0B0EDB6A0C0EDC
:100EA000DB6A0D0EDB6A0E0EDB6A0F0EDB6A100EBC
:100EB000DB6A110EDB6A120EDB6A130EDB6AFF0EB1
:100EC000A45D2CE0A4512AE0140EA4C0DBFF150E93
:100ED000DB6A160EDB6A170EDB6A140EDBCF1AF024
:100EE000150EDBCF1BF0160EDBCF1CF0170EDBCF81
:100EF0001DF0A00E1F6E860E206E010E216E226A5E
:100F000021EC0CF0100E16C0DBFF110E17C0DBFF3A
:100F1000120E18C0DBFF130E19C0DBFFFF0E00011D
:100F2000A55D2BE0A55129E0180EA5C0DBFF190E29
:100F3000DB6A1A0EDB6A1B0EDB6A180EDBCF1AF0B7
:100F4000190EDBCF1BF01A0EDBCF1CF01B0EDBCF14
:100F50001DF0100E1F6E270E206E216A226A21ECF2
:100F60000CF00C0E16C0DBFF0D0E17C0DBFF0E0ED3
:100F700018C0DBFF0F0E19C0DBFFFF0E0001A65DDE
:100F80002BE0A65129E01C0EA6C0DBFF1D0EDB6A7C
:100F90001E0EDB6A1F0EDB6A1C0EDBCF1AF01D0E65
:100FA000DBCF1BF01E0EDBCF1CF01F0EDBCF1DF0C6
:100FB000E80E1F6E030E206E216A226A21EC0CF0EF
:100FC000080E16C0DBFF090E17C0DBFF0A0E18C0A3
:100FD000DBFF0B0E19C0DBFFFF0E0001A75D2AE04F
:100FE000A75128E0200EA7C0DBFF210EDB6A220EEE
:100FF000DB6A230EDB6A200EDBCF1AF0210EDBCF7B
:101000001BF0220EDBCF1CF0230EDBCF1DF0640E95
:101010001F6E206A216A226A21EC0CF0040E16C0B1
:10102000DBFF050E17C0DBFF060E18C0DBFF070E47
:1010300019C0DBFFFF0E0001A85D28E0A85126E0E3
:10104000240EA8C0DBFF250EDB6A260EDB6A270E06
:10105000DB6A240EDBCF1AF0250EDBCF1BF0260E49
:10106000DBCF1CF0270EDBCF1DF00A0E1F6E206AAF
:10107000216A226A21EC0CF016C0DEFF17C0DEFFE9
:1010800018C0DEFF19C0DDFFDD52DD520C0EDBCFD4
:101090000CF00D0EDBCF0DF00E0EDBCF0EF00F0EB1
:1010A000DBCF0FF0D950100FE96EDACFEAFFEE5028
:1010B0000C26EE500D22EE500E22EE500F22D9508B
:1010C000080FE96EDACFEAFF0C50EE24086E0D50DF
:1010D000EE20096E0E50EE200A6E0F50EE200B6EC1
:1010E000D950040FE96EDACFEAFF0850EE24046EFF
:1010F0000950EE20056E0A50EE20066E0B50EE20D1
:10110000076ED9CFE9FFDACFEAFF0450EE24006E74
:101110000550EE20016E0650EE20026E0750EE20C4
:10112000036EA9C010F0116A126A136A00501024ED
:1011300000018E6F015011208F6F02501220906FAE
:1011400003501320916F0001A969A9C0A8F0A9C09C
:10115000A7F0A9C0A6F0A9C0A5F0A9C0A4F00001FD
:10116000FE0E856F85C084F085C083F085C082F057
:1011700085C081F085C080F00C0E861905E187518D
:1011800003E1885101E1895103E184EC03F023D0AC
:101190000D0E861905E1875103E1885101E189515E
:1011A00003E1DCEC02F017D00E0E861905E1875141
:1011B00003E1885101E1895103E12BEC02F00BD0EE
:1011C0000F0E861905E1875103E1885101E189512C
:1011D00002E18DEC01F0280EE15C02E2E16AE552E9
:1011E000E16EE552E7CFD9FF1200FF0E0001A45DCA
:1011F00010E0FE0E0001855D0CE10001A969A9C0A7
:10120000A8F0A9C0A7F0A9C0A6F0A9C0A5F0A9C0E0
:10121000A4F000018A518B118C118D1101E018DEB0
:101220000A0E0001AB1905E1AC5103E1AD5101E13A
:10123000AE5101E1ABD00B0EAB1905E1AC5103E1AE
:10124000AD5101E1AE5101E1A1D00C0EAB1905E1A8
:10125000AC5103E1AD5101E1AE5101E197D00D0E6A
:10126000AB1905E1AC5103E1AD5101E1AE5101E132
:101270008DD00E0EAB1905E1AC5103E1AD5101E18A
:10128000AE5101E183D00F0EAB1905E1AC5103E182
:10129000AD5101E1AE5101E179D01E0EAB1905E16E
:1012A000AC5103E1AD5101E1AE5170E0FF0EA95D1B
:1012B0000AE1000180510001A85D05E0ABC0A9F082
:1012C000A9C080F063D0000180510001A95D0BE14D
:1012D000A9510001815D07E080C0A8F0ABC0A9F072
:1012E000A9C081F053D0000180510001A85D0DE13B
:1012F000A9510001825D09E080C0A7F081C0A8F07B
:10130000ABC0A9F0A9C082F041D00001805100011A
:10131000A75D0FE1A9510001835D0BE080C0A6F03D
:1013200081C0A7F082C0A8F0ABC0A9F0A9C083F02B
:101330002DD0000180510001A65D11E1A9510001ED
:10134000845D0DE080C0A5F081C0A6F082C0A7F04A
:1013500083C0A8F0ABC0A9F0A9C084F017D00001E9
:1013600080510001A55D12E1A9510001855D0EE0EB
:1013700080C0A4F081C0A5F082C0A6F083C0A7F011
:1013800084C0A8F0ABC0A9F0A9C085F01200D9CFE5
:10139000E6FFE1CFD9FF280EE126DE6ADE6ADE6ACB
:1013A000DD6ADD52DD52040EDB6A050EDB6A060ED5
:1013B000DB6A070EDB6A080EDB6A090EDB6A0A0EBF
:1013C000DB6A0B0EDB6A0C0EDB6A0D0EDB6A0E0E9F
:1013D000DB6A0F0EDB6A100EDB6A110EDB6A120E7F
:1013E000DB6A130EDB6AFF0E0001A45D2CE0A45142
:1013F0002AE0140EA4C0DBFF150EDB6A160EDB6AB2
:10140000170EDB6A140EDBCF1AF0150EDBCF1BF0C4
:10141000160EDBCF1CF0170EDBCF1DF0A00E1F6EDB
:10142000860E206E010E216E226A21EC0CF0100E49
:1014300016C0DBFF110E17C0DBFF120E18C0DBFF5A
:10144000130E19C0DBFFFF0E0001A55D2BE0A551B7
:1014500029E0180EA5C0DBFF190EDB6A1A0EDB6A45
:101460001B0EDB6A180EDBCF1AF0190EDBCF1BF058
:101470001A0EDBCF1CF01B0EDBCF1DF0100E1F6E03
:10148000270E206E216A226A21EC0CF00C0E16C089
:10149000DBFF0D0E17C0DBFF0E0E18C0DBFF0F0EBB
:1014A00019C0DBFFFF0E0001A65D2BE0A65129E06D
:1014B0001C0EA6C0DBFF1D0EDB6A1E0EDB6A1F0EB4
:1014C000DB6A1C0EDBCF1AF01D0EDBCF1BF01E0EED
:1014D000DBCF1CF01F0EDBCF1DF0E80E1F6E030EDE
:1014E000206E216A226A21EC0CF0080E16C0DBFF88
:1014F000090E17C0DBFF0A0E18C0DBFF0B0E19C068
:10150000DBFFFF0E0001A75D2AE0A75128E0200EB7
:10151000A7C0DBFF210EDB6A220EDB6A230EDB6A2B
:10152000200EDBCF1AF0210EDBCF1BF0220EDBCF1B
:101530001CF0230EDBCF1DF0640E1F6E206A216AA3
:10154000226A21EC0CF0040E16C0DBFF050E17C05A
:10155000DBFF060E18C0DBFF070E19C0DBFFFF0E16
:101560000001A85D28E0A85126E0240EA8C0DBFFFA
:10157000250EDB6A260EDB6A270EDB6A240EDBCF24
:101580001AF0250EDBCF1BF0260EDBCF1CF0270E4A
:10159000DBCF1DF00A0E1F6E206A216A226A21EC41
:1015A0000CF016C0DEFF17C0DEFF18C0DEFF19C04A
:1015B000DDFFDD52DD520C0EDBCF0CF00D0EDBCF6C
:1015C0000DF00E0EDBCF0EF00F0EDBCF0FF0D9506B
:1015D000100FE96EDACFEAFFEE500C26EE500D2226
:1015E000EE500E22EE500F22D950080FE96EDACFDE
:1015F000EAFF0C50EE24086E0D50EE20096E0E50DE
:10160000EE200A6E0F50EE200B6ED950040FE96EDB
:10161000DACFEAFF0850EE24046E0950EE20056E82
:101620000A50EE20066E0B50EE20076ED9CFE9FF70
:10163000DACFEAFF0450EE24006E0550EE20016E72
:101640000650EE20026E0750EE20036EA9C010F087
:10165000116A126A136A0050102400018A6F015047
:1016600011208B6F025012208C6F035013208D6F4E
:101670000001A969A9C0A8F0A9C0A7F0A9C0A6F057
:10168000A9C0A5F0A9C0A4F00001FE0E856F85C019
:1016900084F085C083F085C082F085C081F085C06C
:1016A00080F00001010EAA6F0001AA510EE02DEC9E
:1016B00000F07CEC00F01AC0ABF01BC0ACF01CC01A
:1016C000ADF01DC0AEF091DDEFD7280EE15C02E277
:1016D000E16AE552E16EE552E7CFD9FF1200FF0E55
:1016E0000001A95D49E0A95104E1A85102E1A75117
:1016F00043E00C0EAB1905E1AC5103E1AD5101E142
:10170000AE5108E100010C0E866F876B886B896B08
:101710003EDE32D00D0EAB1905E1AC5103E1AD5107
:1017200001E1AE5108E100010D0E866F876B886BF9
:10173000896B2DDE21D00E0EAB1905E1AC5103E112
:10174000AD5101E1AE5108E100010E0E866F876BCD
:10175000886B896B1CDE10D00F0EAB1905E1AC5104
:1017600003E1AD5101E1AE5107E100010F0E866FBB
:10177000876B886B896B0BDE1200946A956A0F0E7B
:10178000936EC16E2DEC00F07CEC00F01AC0ABF053
:101790001BC0ACF01CC0ADF01DC0AEF0A0DF25DD5D
:0417A000F1D712006B
:0C17A400060EF66E000EF76E000EF86EDA
:1017B00000010900F550B46F0900F550B56F03E161
:1017C000B46701D03DD00900F550AF6F0900F55066
:1017D000B06F0900F550B16F09000900F550E96ECE
:1017E0000900F550EA6E090009000900F550B26FD2
:1017F0000900F550B36F09000900F6CFB6F0F7CF36
:10180000B7F0F8CFB8F0AFC0F6FFB0C0F7FFB1C087
:10181000F8FF0001B25302E1B35307E00900F550AD
:10182000EE6EB207F8E2B307F9D7B6C0F6FFB7C05D
:10183000F7FFB8C0F8FF0001B407000EB55BBFD7D3
:02184000120094
:0E1842001A501F02F3CF16F0F4CF17F0200259
:10185000F3501726000EF420186E1A502102F35090
:101860001826000EF420196E1A502202F350192681
:101870001B501F02F3501726F4501822000E192295
:101880001B502002F3501826F45019221B5021023D
:10189000F35019261C501F02F3501826F450192239
:1018A0001C502002F35019261D501F02F350192618
:0218B000120024
:0E18B200146AE86A22AE66EF0CF01F6C201E6E
:1018C000211E221E202221222222141E1DAE71EF73
:1018D0000CF01A6C1B1E1C1E1D1E1B221C221D221E
:1018E000141E8DEC0CF01DBE88EF0CF014AE000C35
:1018F0001A6C1B1E1C1E1D1EE86A1B221C221D22A8
:10190000166C171E181E191E172218221922000CF9
:0A19100014BE78EF0CF01588FF0CF0
:06191A00196A186A176A41
:10192000166A200EE76ED8901A361B361C361D3606
:1019300016361736183619361F50165C20501758B1
:10194000215018582250195809E31F50165E205094
:10195000175A2150185A2250195A1A2AE72EE4D73A
:02196000120073
:0E196200000EF36E00EE00F0060E01D812002B
:10197000EA6002D0EE6AFCD7F350E9601200EE6A2A
:02198000FCD792
:0E19820015EE00F025EE00F0F86A159CD2EC90
:0E1990000BF0CFEC0CF0BDEC0BF0FBD712000F
:02199E00120035
:1019A000FEFEFEFEFEFE0000000000000000000043
:1019B0000000000000003F065B4F666D7D077F6FF3
:0419C000794080509A
:00000001FF
