:020000040000FA
:0600000019EF03F01200ED
:0A0006000100500600008000000019
:040010006600000086
:0C0014000F9E08D00F9E07AE05D0066CB2
:10002000071EE86A07220F8E07C001F006C000F025
:10003000136A126A8E0E026E036A2AEF01F00F6ACB
:1000400066EC01F07EEC01F00FB60EEF01F00FA2AE
:1000500005D00FBA0EEF01F015EF01F00FBA21EF46
:1000600001F00FA005D00FB80EEF01F021EF01F065
:100070000FB815EF01F0036A7F0E0824026EE86ADC
:1000800003220D50025EE86A035A1A0E106E086AC7
:10009000126A136A006A016A0A50055E0B50065A1A
:1000A0000C50075A000E085A09E70A5005260B5053
:1000B00006220C500722000E082201D0128AD89086
:1000C0000536063607360836D8901236133600360F
:1000D0000136102EE1D7075006100510D8A4128A59
:1000E0002AEF01F00F6A66EC01F07EEC01F00FB62A
:1000F0000EEF01F00FA205D00FB80EEF01F015EFD3
:1001000001F00FAA05D00FB00EEF01F015EF01F0CE
:100110000FB002D00FA802D021EF01F0036A0D50FA
:100120000824026EE86A03227E0E025EE86A035A21
:10013000126A136A006A016A0C500702F4CF01F0D8
:10014000F3CF00F00B500702F3501326F4500022B7
:10015000000E01220C500602F3501326F450002228
:10016000000E01220A500702F3501226F450132207
:10017000000E002201220B500602F3501226F4500A
:100180001322000E002201220C500502F350122609
:10019000F4501322000E002201220A500602F450ED
:1001A0001226000E1322002201220B500502F450E9
:1001B0001226000E1322002201222AEF01F00F6AFC
:1001C00066EC01F00FB6E9EF00F00FA20ED00FB40D
:1001D00005D07F0E076EFF0E066E1FD0800E076ED5
:1001E000066A1BD0076A066A18D00FB0FBD78F0EBD
:1001F0000860EDD77E0E0864F5D78E0E085C05E02A
:10020000D89007320632082AF8D70FA406D0066C19
:10021000071EE86A072207AEE5D712007F0E086EB8
:10022000FF0E076E066E056E12007F0E0FBEFF0EEC
:10023000086E02D07F0E086E800E076E066A056A91
:10024000F3D70FAE04D0800E086E076AF7D7086A9E
:10025000076AF4D70150001013101210F8E003BE23
:10026000F0D701BE0CD002500310EBE0D89012364C
:100270001336003601360206D8A00306F2D7035023
:10028000D4E10228D2E012AE11D07F0E121402E1A6
:1002900013A00CD0132AE86A0022012207E3D880B9
:1002A000013200321332022A0228BFE00250C9E0B4
:1002B00013C005F000C006F00134076E0230086E6E
:1002C0000732089E0FBE088E14EF01F0073608367D
:1002D00002E30F840F7E06E10F80086A076A066A50
:1002E000056A1200082803E0D88007321200D8906F
:1002F000073202E10F8212000F8612000C360D3613
:1003000002E30F8C0F7E06E10F880D6A0C6A0B6A00
:100310000A6A12000D2803E0D8800C321200D8902F
:080320000C32EAE10F8A120021
:08032800D9CFE6FFE1CFD9FFB8
:10033000020EE126DE6ADD6ADECF14F0DDCF15F0B5
:10034000040E145C000E155805E2DF2A010E01E3CD
:10035000DB2AF2D7146E020EE15C02E2E16AE5529A
:10036000E16E1450E552E7CFD9FF1200D9CFE6FF76
:10037000E1CFD9FF020EE126DE6ADD6A80BCFED73E
:1003800080ACFED780AC06D0CFDFDF2A010E01E3C0
:10039000DB2AF8D780BC06D0C7DFDF2A010E01E3D5
:1003A000DB2AF8D7DECF14F0DDCF15F014C0F3FF51
:1003B00015C0F4FF020EE15C03E200D0E16AE552F1
:1003C000E16EE552E7CFD9FF1200D9CFE6FFE1CFCA
:1003D000D9FF0E0EE126DE6ADE6A800EDE6E3F0E6B
:1003E000DD6EDD52DD52FD0EDBCF06F0FE0EDBCF03
:1003F00007F00CEC00F0040E05C0DBFF050E06C094
:10040000DBFF060E07C0DBFF070E08C0DBFFDECFF9
:1004100005F0DECF06F0DECF07F0DDCF08F0DD52CD
:10042000DD52040EDBCF0AF0050EDBCF0BF0060E1B
:10043000DBCF0CF0070EDBCF0DF01FEC00F005C09A
:1004400014F006C015F007C016F008C017F00A6ACD
:10045000400E0B6E1C0E0C6E460E0D6E14C005F099
:1004600015C006F016C007F017C008F072EC00F0D7
:10047000080E05C0DBFF090E06C0DBFF0A0E07C031
:10048000DBFF0B0E08C0DBFF080EDBCF05F0090E0B
:10049000DBCF06F00A0EDBCF07F00B0EDBCF08F048
:1004A000DFEC00F00C0E06C0DBFF0D0E07C0DBFF1B
:1004B0000C0EDBCF14F00D0EDBCF15F014C0F3FFE4
:1004C00015C0F4FF0E0EE15C03E200D0E16AE552D4
:1004D000E16EE552E7CFD9FF1200D9CFE6FFE1CFB9
:1004E000D9FFFE0EDBCF14F0630EE76E1418E8AEF2
:1004F00002D0143403D0E750D880145403E2EE0E37
:10050000826E1DD0FE0EDBCF14F00A0EE76E1418BB
:10051000E8AE02D0143403D0E750D880145403E37B
:100520008CC082FF0CD0FE0EDBCFE9FFEA6AE9BE89
:10053000EA68820EE926000EEA22EF50826EE5524A
:10054000E7CFD9FF12000F0EC16E946A928CECDED9
:100550000DDFF3CF14F0F4CF15F014C0E6FF15C093
:10056000E6FF33DFE552E552F350E66EB6DFE552C3
:04057000EFD71200AF
:0C057400060EF66E000EF76E000EF86E1C
:1005800000010900F550EB6F0900F550EC6F03E135
:10059000EB6701D03DD00900F550E66F0900F5503A
:1005A000E76F0900F550E86F09000900F550E96EA2
:1005B0000900F550EA6E090009000900F550E96FDD
:1005C0000900F550EA6F09000900F6CFEDF0F7CF0A
:1005D000EEF0F8CFEFF0E6C0F6FFE7C0F7FFE8C0B7
:1005E000F8FF0001E95302E1EA5307E00900F55082
:1005F000EE6EE907F8E2EA07F9D7EDC0F6FFEEC0C4
:10060000F7FFEFC0F8FF0001EB07000EEC5BBFD770
:020610001200D6
:0E061200000EF36E00EE00F0060E01D812008E
:10062000EA6002D0EE6AFCD7F350E9601200EE6A8D
:02063000FCD7F5
:0E06320015EE00F025EE00F0F86A0F9CBAEC11
:0E06400002F027EC03F0A3EC02F0FBD712004F
:02064E00120098
:100650000000000102030405060708091011121327
:100660001415161718192021222324252627282996
:1006700030313233343536373839404142434445DE
:10068000464748495051525354555657585960613E
:100690006263646566676869707172737475767792
:1006A00078798081828384858687888990919293E6
:0606B000949596979899BD
:00000001FF
